:10000000F02165007F3E62000930A0008C010C08E1
:10001000F521C0218C0AA00B07289030C0210A08C6
:100020000839C021F0308A051B308400840ADE21A3
:100030008000841E162820301D0603198F288A0A86
:100040000C30AF002F08693E43231D0603192B28EF
:10005000AF0B22280D282F08073C031C33281D084E
:10006000A008031DC0212F08363E8A0182005428B3
:10007000FB295E28F22884294628A72848286E29CB
:10008000932BE62B6E300E286B300E280630FC29A1
:10009000AC30C0211E08AE00083A031D51280B1FCA
:1000A0008A1503171E1A8A15A003A01B0D28DE212E
:1000B0002A1F54289E0803198A15542883138A1569
:1000C000031F6E282E08BD21200303198A11031374
:1000D0002E08A73A0319B2297020CC288317682864
:1000E000A13A03193C34A23A03195F34013A0319C7
:1000F00065340D3A03194034023A03194734063A7D
:1001000003194E34013A03195534493A03195F343F
:10011000EC3A03193E34AE3A03195A340034203015
:10012000C02120088D0020308400840ADE21800058
:10013000A00B95281E088A071F0850232030840032
:10014000840A00085B238D0BA02879230D280B1748
:1001500020088D000D108D03A003DE218D0BAC282F
:10016000EF3E8D00031C7F29A003DE21890094004F
:10017000091A8D15891A8D170F398E0003198B16E0
:100180002018DE2113088100AE2107300E02031C67
:10019000D5280319E9281729653A0319D128653AA2
:1001A000FD295F212E088A15FE299F0124210508BB
:1001B0000A1EDF28851DDF28141B013E03399F001E
:1001C00024212E080E078B1E0D2850230D085623C0
:1001D00017296B300D186A308D000A3050230D0836
:1001E00056236300AE219E1811291E19F9288C018F
:1001F0000D280108A400DE21A100DE21A2000F3994
:100200008100DE21F039A3008106210A031D0B1AAB
:100210000D2824212F088B3E8C0024088A19810088
:100220000D2803308C0719210C08333C03198A155B
:100230000D288C0AA9218100A921F039810688188E
:100240001929FD308C070800AD01AE017830AF00F0
:10025000AE210A128A112F0843230F39AC0049231B
:1002600008180A1688183929F0392C0601060319CE
:1002700044293830AE070318AD0A0330AF07BD304C
:100280002F02031D29298A152D088A078A0A9F1122
:1002900007309F039F1B0800AE0703188A0A4729EF
:1002A000213084002E08502349238000840A841DB5
:1002B00054290800A002DD21A00B5B2908000108D9
:1002C0009E000C089400F823033E9F00FF3081003D
:1002D00024211E08810014088C0008001F088500D6
:1002E000242150211A305A213822083089001B302D
:1002F00010223822DC218830C0210830A000DE2105
:10030000A00B7F298A110D28201C20199A29313031
:10031000201EFC29A0199A29EA30BD211030BD21E8
:100320000C3084000008C021840AA00B9229010827
:1003300093000D28AE210C0803198729A921BD219E
:10034000A921BD21A9210F38BD21FD308C0719300D
:10035000FC290C08743E43238C0A08000A148A10F6
:100360000A110800B421FC290A148A140A150C0881
:10037000AD00AD0DAD0D2D070800A003C0297730ED
:10038000AA00AA093230F1217F306600AB01861342
:100390000830A800F0212A08AB068613AA1B86178E
:1003A000AA0DA80BCA29F0218613AB1F8617F021CE
:1003B000FF3066004030F129DD21BF21861BDE2998
:1003C0002A30F1210930A8000310861F0314AA0D5A
:1003D000F021A80BE429AA0C2830F1212A080800F2
:1003E0001B30A900A90BF2290034890083160814D8
:1003F000831208080800003083170A145023492389
:10040000AD00831FBD21A003A01B0D281D1AFF30C6
:10041000AD03AD1B0E2A4923080E963AC021032ACC
:100420001222132A8400162216221622000888009F
:10043000090884020808800009088407840308006A
:1004400001300A1A1B3088000310A4190314A411E8
:10045000A70DA60DA50DA40DA30DA20DA10D0318AA
:100460002416880B242A08008800880C080C080031
:1004700018308400DD218000840A841E3A2A0A1E76
:100480005D2A851D522A1F08A8003A2328089F00CC
:100490005222050A3B2340230A12522219233A23EF
:1004A00040230A161830950083172923950A951EB4
:1004B000552A103089002F3010221030A0000A1A5F
:1004C000201E632A6D2A2022200303196D2A0D3C69
:1004D000031C6D2A063A031D2022AE212830940009
:1004E0000830970006309600970A1708F521950006
:1004F0000739203E8400950DF03095050318950EC0
:10050000150803100005031D031414088400800D52
:10051000960B742A00138013940A9419722A94017A
:10052000950197010A101F0C1C0C342228063F3934
:1005300043238819951708199617881896140818D0
:1005400097141D0D1C0D29063F3940384323881987
:1005500095150819171688181417081816171C0C63
:100560001D0C34222A063F3980384323881916147B
:100570000819151488181715081814151E0D1D0DC7
:100580002B063F39C0384323881917170819161648
:1005900088181517081894171D0C1E0C34222C06E9
:1005A0003F394323881B1414081B1515881A971705
:1005B000081A94161F0D1E0D2D063F39403843238F
:1005C000881B1416081B9715881A9516081A961674
:1005D0001E0C1F0C34222E063F3980384323881B03
:1005E0001714081B1516881A1615081A94141C0DD2
:1005F0001F0D2F063F39C0384323881B9415081B55
:100600009716881A9514081A96151808940619084A
:1006100095061A0896061B089706043089001F30B5
:100620001222F830890017301222A00B5F2A0A1E0E
:10063000003420221F3095008313292304309506AF
:10064000151D1D2B950315191D2B143089002F30F6
:10065000102A2830960015088400831F322B800D45
:10066000800D332B800C16088400800C960A161E11
:100670002B2B0800050803399F0024215021FC344E
:1006800089001B30102A890072230310582309089F
:100690005B23722303145823662379230808080078
:1006A000890072230310582309085B2B5B23792BE5
:1006B0000A0D0F39A0388800CF306600612361230E
:1006C0008B2B642364236423880D852BDF30660025
:1006D0006C236C230314832B6F236F236F238D23D1
:1006E000880D08000616CF30660086160000061238
:1006F000812B0612CF306600000086160000061619
:10070000000086120800CF306600031C0612031892
:1007100006168616802BDF3066008616000003144E
:10072000061E0310812B1F081E07053A031D0D2806
:100730001F3A0319E02BF03A0F398500E323EF3A13
:10074000031D982BF8239F000108A000FF308100B3
:100750002421200881005021E32318308400E32362
:100760008000840A841EAF2B0A123F2205089F00D6
:100770002421502121081406031DCB2B2208150625
:10078000031DCB2B23081606031DCB2B24081706AD
:10079000031DCB2B9E2B1B08031DDF2B1430840065
:1007A0002E085023000856237223031058230318E1
:1007B000D42BAE0A840A1B300406031DD02B9E2BBB
:1007C000E32318307C29E730C021DE295F21502146
:1007D000F030C021A00AED2BDE2120082606031DE3
:1007E000F52B27082A0503198A15A00BEC2B0D28D9
:1007F0000108043A03190134103A0319023403348E
:02400E000900A7
:104200003F0067002F0000001100140000000300B1
:104210006800A200430012008B004100C1001100A1
:104220000C009200A100C3002200930013000A00BA
:104230000900240089008A00910014000B00C200CC
:10424000210046000F009400C50096009700A400CE
:104250008D001700C60045008E000E004700950037
:104260008F002500C700A600260027000D00C4000F
:104270008C000000000000000000000000000000B2
:00000001FF
