:10000000102265007F3E62000930A0008C010C08C0
:100010001522DA218C0AA00B07289030DA210A0871
:100020000839DA21F0308A051B308400840AF8216F
:100030008000841E162820301D0603198F288A0A86
:100040000C30AF002F08693E49231D0603192B28E9
:10005000AF0B22280D282F08073C031C33281D084E
:10006000A008031DDA212F08363E8A018200542899
:100070001B2A5E28FD289E294628A828482867298B
:10008000442844286E300E286B300E2806301C2A77
:10009000AC30DA211E08AE00083A031D51280B1FB0
:1000A0008A1503171E1A8A15A003A01B0D28F82114
:1000B0002A1F54289E0803198A15542883138A1569
:1000C000031F6E282E08D721200303198A1103135A
:1000D0002E08A73A0319CC2970201D2A83176828F7
:1000E000A13A03193C34A23A03195F34013A0319C7
:1000F00065340D3A03194034023A03194734063A7D
:1001000003194E34013A03195534493A03195F343F
:10011000EC3A03193E34AE3A03195A3400340B1743
:100120002030DA2120088D0020308400840AF82154
:100130008000A00B96281E088A071F08562320302F
:100140008400840A000861238D0BA1287F230D28D9
:1001500020088D000D108D03A003F8218D0BAC2815
:10016000EF3E8D00031C9929A003F8218900091A8C
:100170008D15891A8D170F398E0003198B162018CB
:10018000F82113088100C82107300E02031CDD2866
:100190000319E8280E1CD0280B16D7208F0022291F
:1001A000D7202F0A49238D008D142F0AE4280D082B
:1001B0000D070D07783EAF00080005089F002C21B1
:1001C0002E080E078B1E0D2856230D085C232229AE
:1001D0000D08AA3A0319F5286B300D186A308D0006
:1001E0000A3056230D085C2363002C21C8212F0AF6
:1001F00049238D000D142F0AE428C8219E181C29BC
:100200001E1904298C010D280108A400F821A10061
:10021000F821A2000F398100F821F039A3008106EE
:10022000210A031D0B1A0D282C212F088B3E8C0050
:1002300024088A1981000D2803308C0724210C081A
:10024000333C03198A150D288C0A8C0AC32188189F
:100250002429FD308C070800AD01AE017830AF00D5
:10026000C8210A128A112F0849230F39AC004F23E5
:1002700008180A1688184129F0392C0601060319B6
:100280004C293830AE070318AD0A0330AF07BD3034
:100290002F02031D31298A152D088A078A0A9F110A
:1002A00007309F039F1B0800AE0703188A0A4F29D7
:1002B000213084002E0856234F238000840A841D99
:1002C0005C290800A002F721A00B632908000B1E7F
:1002D00073290B12C8210F0356232108612322081A
:1002E000612323085C231F0885002C2158212F0837
:1002F0008B3E8C00CE210A3EAE004923AD002E0875
:1003000056230508F63E0318073E3A3E963AAF00DC
:100310002F0EAD06031D5C231A30622158220830CF
:100320008900143030225822F6218830DA21083032
:10033000A000F821A00B99298A110D28201C201952
:10034000B4293130201E1C2AA019B429EA30D72143
:100350001030D7210C3084000008DA21840AA00B69
:10036000AC29010893000D28C8210C080319A12904
:10037000C321D721C321D721C3210F38D721FD3075
:100380008C0719301C2A0C08743E49238C0A08007B
:100390000A148A100A110800CE211C2A0A148A1491
:1003A0000A150C08AD00AD0DAD0D2D070800A0031A
:1003B000DA297730AA00AA09323011227F3066008C
:1003C000AB0186130830A80010222A08AB0686135A
:1003D000AA1B8617AA0DA80BE42910228613AB1FAF
:1003E00086171022FF3066004F30112AF721D921DD
:1003F000861BF8292A3011220930A8000310861F15
:100400000314AA0D1022A80BFE29AA0C28301122D1
:100410002A080800782303105E2303180A2A08001C
:100420001B30A900A90B122A003489008316081476
:10043000831208080800003083170A1456234F233C
:10044000AD00831FD721A003A01B0D281D1AFF306C
:10045000AD03AD1B2E2A4F23080E963ADA21232A2C
:100460003222332A840036223622362200088800BF
:10047000090884020808800009088407840A080023
:1004800001300A1A1B3088000310A4190314A411A8
:10049000A70DA60DA50DA40DA30DA20DA10D03186A
:1004A0002416880B442A08008800880C080C0800D1
:1004B00018308400F7218000840A841E5A2A0A1EFC
:1004C0006C2A1830950083173823950A951E642AE4
:1004D00010308900283030221030A0000A1A201E67
:1004E000722A7C2A4022200303197C2A0D3C031C1B
:1004F0007C2A063A031D4022C82128309400083087
:10050000970006309600970A1708152295000739BC
:10051000203E8400950DF03095050318950E1508C2
:1005200003100005031D031414088400800D960BAE
:10053000832A00138013940A9419812A9401950147
:1005400097010A101F0C1C0C542228063F3949231E
:10055000881995170819961788189614081897146B
:100560001D0D1C0D29063F39403849238819951562
:100570000819171688181417081816171C0C1D0CC4
:1005800054222A063F39803849238819161408193D
:10059000151488181715081814151E0D1D0D2B0697
:1005A0003F39C038492388191717081916168818B3
:1005B0001517081894171D0C1E0C54222C063F39D1
:1005C0004923881B1414081B1515881A9717081A35
:1005D00094161F0D1E0D2D063F3940384923881BE8
:1005E0001416081B9715881A9516081A96161E0CCD
:1005F0001F0C54222E063F3980384923881B1714BC
:10060000081B1516881A1615081A94141C0D1F0DB0
:100610002F063F39C0384923881B9415081B9716AD
:10062000881A9514081A961518089406190895063C
:100630001A0896061B089706043089001C303222DF
:10064000F830890014303222A00B6E2A0A1E0034C2
:1006500040221F3095008313382304309506151D62
:100660002C2B950315192C2B143089002830302A97
:100670002830960015088400831F412B800D800DC3
:10068000422B800C16088400800C960A161E3A2B0A
:1006900008008900782303105E230908612378236A
:1006A00003145E236C237F23080808008900782345
:1006B00003105E230908612B61237F2B0A0D0F397C
:1006C000A0388800CF30660067236723912B6A2308
:1006D0006A236A23880D8B2BDF3066007223722316
:1006E0000314892B7523752375239323880D080024
:1006F0000616CF306600861600000612872B0612FB
:10070000CF30660000008616000006160000861234
:100710000800CF306600031C061203180616861662
:10072000862BDF306600861600000314061E0310B9
:10073000872B000000000000000000000000000007
:1007400000000000000000000000000000000000A9
:100750000000000000000000000000000000000099
:100760000000000000000000000000000000000089
:100770000000000000000000000000000000000079
:100780000000000000000000000000000000000069
:100790000000000000000000000000000000000059
:1007A0000000000000000000000000000000000049
:1007B0000000000000000000000000000000000039
:1007C0000000000000000000000000000000000029
:1007D0000000000000000000000000000000000019
:1007E0000000000000000000000000000000000009
:1007F00000000000000000000000000000000000F9
:084000004D00320031003500D3
:02400E00190097
:104200003F0067002F0000001100140000000300B1
:104210006800A200430012008B004100C1001100A1
:104220000C009200A100C3002200930013000A00BA
:104230000900240089008A00910014000B00C200CC
:10424000210046000F009400C50096009700A400CE
:104250008D001700C60045008E000E004700950037
:104260008F002500C700A600260027000D00C4000F
:104270008C000000000000000000000000000000B2
:00000001FF
