:100000006322C9018316FF3086000030810083120D
:1000100022224508023A03192728553A03192F28A6
:10002000513A03194E28F93A03192428A13A031921
:100030002A28013A03192A2828222222450A031DC8
:100040001C28460A031D1C2801302E220828B03027
:10005000CD003D282822272222224A302528B830E8
:10006000CD004608003A03193D28C030CD004608AF
:10007000013A03193D28C830CD000830C7002822B6
:10008000222202302E2202308A00222276222C22C4
:10009000CD0AC70B45282222030125280830CF00AE
:1000A0000030CD000630C7006922460603195E28DD
:1000B000CD0A4F08083ECF00C70B542828220C3029
:1000C00084000830C7004E228000840A4E2280003F
:1000D000840A2822C70B63280C30B40098202722FA
:1000E0001430B40098208420222206302E2224309E
:1000F00084000830C700222200082C22840AC70B83
:100100007B282222023025281808A4001908A500FF
:100110001A08A6001B087F39A7001B0D0C0DA800AC
:100120000D0DA9000E0DAA000F0D1F39AB00080020
:100130004F08CD000830C7006922CE0CA40DCE0CAC
:10014000A70DCE0CA60DCE0CA50DCE0CA80DCE0C79
:10015000A90DCE0CAA0DCE0CAB0DCD0AC70B9C2859
:10016000280EF039A400340884000830C700800C41
:10017000A00D800C9C0D800CA10D800C9D0D800CA1
:10018000A20D800C9E0D800CA30D800C9F0D840A87
:10019000C70BB72802308A00BF30CC007E30CB00BE
:1001A0001030CA00BC01271A3C14A71BBC14271826
:1001B0003C152519BC1526193C16251BBC16BB0180
:1001C000A41B3B142719BB14241A3B15A61ABB15F4
:1001D000A5193B162618BB16BA01251A3A14A719F9
:1001E000BA14A51B3A15A518BA15261A3A16271BD4
:1001F000BA16B901A41A3914A51AB914A61B3915CF
:10020000A71AB91525183916A619B916B8012B1B46
:100210003814AA19B814291A3815A81AB815AB1821
:1002200038162A18B816B7012B183714281BB7141C
:100230002B1A37152A1AB715A91A3716A918B7167F
:10024000B6012A1B3614A919B6142B193615AA188B
:10025000B615281A3616AB1AB616B501AB193514F1
:10026000AB1BB51429183515AA1AB515A91B3516D7
:100270002A19B516C4019F1B44141C18C4149C18D9
:1002800044151C19C4159C1944161C1AC416C30124
:100290009C1943141C1AC3149C1A43151C1BC31528
:1002A0009C1B43161D18C316C2019C1B42141D182B
:1002B000C2149D1842151D19C2159D1942161D1A0A
:1002C000C216C1019D1941141D1AC1149D1A411570
:1002D0001D1BC1159D1B41161E18C116C0019D1B7B
:1002E00040141E18C0149E1840151E19C0159E19E2
:1002F00040161E1AC016BF019E193F141E1ABF14C5
:100300009E1A3F151E1BBF159E1B3F161F18BF16BA
:10031000BE019E1B3E141F18BE149F183E151F19C8
:10032000BE159F193E161F1ABE16BD019F193D141A
:100330001F1ABD149F1A3D151F1BBD159F1B3D168F
:100340001C18BD162030C700AC012C083D3E8400AF
:100350000008AD00F830840700082D063F39AD00D5
:100360007822AE002D0C2E040A147F220A10AE0053
:100370002D1CBD292E0EF039AE000430C8004703F5
:100380007E22AF000339303E84002F0E7B22AE0D5B
:10039000031CCD29FF3A8005CE298004C703031929
:1003A000D529C80BBF29AC0AA5292308B306220802
:1003B000B2062108B1062008B0061C08A0001D08DE
:1003C000A1001E08A2001F08A30030089C003108ED
:1003D0009D0032089E0033089F00CA030319FA29C2
:1003E0001322CC0CCB0C031813224A08083A031929
:1003F0002722D2280830C7003408073E8400A30C07
:10040000800D9F0C800DA20C800D9E0C800DA10C08
:10041000800D9D0C800DA00C800D9C0C800D840324
:10042000C70BFF2908000310241A0314A70CA60CFD
:10043000A50CA40C0310281A0314AB0CAA0CA90CCD
:10044000A80C08004E22C5004E22C6000800222239
:100450000130491CA0302E2AC913302AC91749146B
:10046000B2001F306422861383168613831208306D
:10047000B3006322B20C320C803906068606B30B39
:10048000392A63220301C91B8030060686061F3005
:10049000642283168617831263220800861B4E2A65
:1004A0002E3064220930B30000000310861B0314B1
:1004B000B20C6322B30B552AB20DC9130318C91726
:1004C0006322320808001D30B100B10B652A0034E8
:1004D000CD004D08000089000000831600000000D8
:1004E0000814831208080000CE0008004D0882009E
:1004F0002C08D03E82000739D83E8200E03E8200C0
:10050000FF3FFF3FFF3FFF3FFF3FFF3FFF3FFF3FFB
:10051000FF3FFF3FFF3FFF3FFF3FFF3FFF3FFF3FEB
:10052000FF3FFF3FFF3FFF3FFF3FFF3FFF3FFF3FDB
:10053000FF3FFF3FFF3FFF3FFF3FFF3FFF3FFF3FCB
:10054000FF3FFF3FFF3FFF3FFF3FFF3FFF3FFF3FBB
:10055000FF3FFF3FFF3FFF3FFF3FFF3FFF3FFF3FAB
:100560001C34383414340534FF341434E134E534A5
:1005700000340034003400340034003400340034DB
:1005800000340034003400340034003400340034CB
:1005900000340034003402340034003400340034B9
:1005A0000034E034C034A03480346034403420342B
:1005B000013402340434083410342034403480349C
:1005C000313412345034333413342134423400344F
:1005D000513452343034433453347034223403347D
:1005E00073346234413460342334203402340134AF
:1005F0006134633440343234103411347134723421
:100600001F34B0342834EB34D1340D3442347E34CA
:10061000C534593493343434A6346A34FC348734C2
:10062000B034E33417347D342B349634DE3448341C
:100630000A3434346C348134C5345F34A934F23430
:100640002E34D0347234B73495340C344834EB340F
:1006500053346A34C9341434AF34F13436348D34FD
:100660008D344E34B134E8346B3435341734D234ED
:10067000F034933456342F340C34CA34A9347434DF
:10068000B2344F34D43418340B34F6347E34253439
:10069000C1343C346A348334AD3450349734E93453
:1006A000E934B434423427343E34CB3485341834FE
:1006B00056340A349F347034F134AD346C34D3344E
:1006C0003534E0345B340D346834D33496347A34C2
:1006D000F9342E34C234B1341F348434AC3447344A
:1006E0006B341C340D34A334D6347A343034C534EE
:1006F0008434F134BE345834E9342F3447349234DE
:10070000D1343434BD34E3348B34583442349E34E1
:100710007A34AF34C03405342C34F63417346934A9
:10072000B434D734E33448345E3421348D347234F5
:10073000093460343F34A6349534CB34FA341C3455
:10074000823427341434CA34F93490346F345C342E
:10075000EB34D8347D34A3344E343534B1340634DC
:100760005C3490346F34F93435344E348234273469
:100770000634EB34CA341434A334D8347D34B13461
:100780005234F8346F3416349C34CB340934A534E5
:10079000ED3427343A3481344334B434D0347E34A5
:1007A0002E349534B2346F3479340634C734F83487
:1007B0004B34E034D1343C34A4345A341D348334C3
:1007C0000C34E2347B34183490344D34C734B134B3
:1007D00063348F34DE3425343934F634A4345A3457
:1007E000F234173485344E345C34B0342B34ED3469
:1007F000A4347934383493346F34CA34D134063461
:084000000000020000000200B4
:02400E00F93F78
:104200000000000011003000FF00FF00FF00FF0071
:104210006800AE000C00E9006400160078008D0014
:10422000000000000000000000000000000000008E
:10423000C400A500A800180074009300C700650022
:104240006800AE000C00E9006400160078008D00E4
:10425000000000000000000000000000000000005E
:10426000000000000000000000000000000000004E
:10427000000000000000000000000000000000003E
:00000001FF
