:10000000002A090082071E2A8A2A9D2A8A2A2B2A68
:10001000412A4F2A5E2A6D2A732A852A8207503484
:1000200020342034203430342034203454342034EC
:1000300020342034303450342034203420343034D0
:100040002034203454342034203420343034820797
:100050001B349D344834D4349334DC34BB34AF3453
:100060004E342534AB34FC349C34CC3436348234B6
:100070007D34C134C534BB346334F234BF34EF341F
:100080004134D234A534F6346634F3344B34BC34C2
:10009000303484347834EE34E93446347D34EC340E
:1000A0002734AA3437343A34ED3452344634C13428
:1000B000CA340534CB34EC34BF34973422340234A0
:1000C0004734EA346634813443349434A4340034FD
:1000D0000D34FA34AB347C345B34CF340F343534E4
:1000E000DB3426344134B134D9347C345034613477
:1000F000C034CF343534E234EE344F345E34BE3461
:10010000C43463349734E8343634203422345934D8
:100110003434F434973428348734BA3437342A34B6
:10012000DF348634793426346B345F340034E93478
:10013000D434E6349234DF345334F134F834EE34CA
:10014000A6341434D0347D34A934D53436348207FF
:1001500058346B344D340534B03469348334163438
:10016000A6344834DE345E340B34AA344934A9341E
:10017000C634E53493341A34BE34563473342034E0
:10018000FB34F834CA340834343429348A349B3488
:1001900082073F347E341334253403342134B034A1
:1001A0001234003400344D345934003402340034F5
:1001B00046344E340134003414308D00F0208D0B61
:1001C000DE28AE01AD012D08C8205023AD0A133042
:1001D0002D06031DE328AE1440309E00AF0100340D
:1001E0009330992A1D30992A1A30992A1930992A60
:1001F0000D30992A0430992A0330992A0130992A1E
:100200008207AC34FC342D34B434103450340F3401
:100210004034FB34D0341834EE34D33448341734FB
:10022000C934BE34F8347E34CA34F334D9340A3491
:10023000CF34DB34D5340E34CD34BA341834E7340B
:100240008D34FB3493346634E83440343F340D3419
:100250006A34D63491342F341A346F348E34723475
:10026000BD346734B63488349B34D7349034843406
:10027000753406340234373429343834D334D8341E
:1002800000347C34713493349A340934E734433481
:1002900025340934063486340434C234A2341B3481
:1002A0000134ED344E344634FC3458344F34C534C4
:1002B000DF34D734BA3412349A341134DF348E3404
:1002C0008C34EC34C13474344E34AF346F34043471
:1002D000E534E534D734D4340A343B340934243497
:1002E000F03425342C340F3496341F34BC34C634E7
:1002F000CF343434A03420347F343B347F34F4346E
:1003000082074434EC34BE34CC34FC34C834423438
:100310007C340A343234D634563437341D341F34E6
:10032000A7349834CB344C34EE341134D234CD3439
:100330009034E1347B34013494347B347334BD34F1
:100340006E3425344134C134F1344F348034F234C6
:100350005F34DF3498349434B534DF34D5341A3410
:10036000F6343334FB340E343834913418341B34BF
:100370003E349E34F93432345F34F934C734CC34EB
:10038000003449345134C634C334A934D734A83482
:100390000D344B342A34FE3474343C347734CA344C
:1003A0006D34BC34563468347634A534EB34EA34D6
:1003B0008334E5345434073403343E349934CB3435
:1003C000A434BE3429349534F4340A340234A834C5
:1003D00002348D34FA3492347B341B34C5348B347C
:1003E0007A345A3497348034B53424346E349934A2
:1003F000A834C43489340734E6348834B9344B34EF
:10040000DC202023533A031D012A20239C002023B3
:10041000202320239D001B3099221C086F3C0318C9
:100420008E2A1C088A3C031C8E2A1C188E2A1C0843
:10043000502370309C0203101C0C02280130502302
:1004400000305023013050233A30502329305023BC
:1004500001305023922A100850231108502312080B
:10046000502313085023140850231508502316084E
:10047000502317085023AF19AF16AF18AF15AF149C
:10048000922AD830AF1A80305023AD012D080E20AB
:100490005023AD0A18302D06031D462A922A01303A
:1004A000502300305023013050233A30502329305C
:1004B00050237C30502306309D02852A40309E0612
:1004C000AD012D081E0727205023AD0A3F302D0611
:1004D000031D612A00305023922A20232E108E08FB
:1004E000031D2E14922AAD012D0880225023AD0A3F
:1004F0003F302D06031D742A003050230A10922A23
:100500000A141E072E1C00298029003050239D0B41
:10051000852A922A20239D0B8A2A922A1730992213
:100520006D30952A17309922903050230030502397
:10053000012A9B009B0B9A2A0034AB01AC01FD22DF
:10054000103084002E11AE18BC2A2023062320234D
:1005500006232023093A03192E15062320230623F8
:1005600020231F3A03192E1506232023933A03193B
:100570002E1506231530BD2A1B30AD00202306237F
:10058000AD0BBE2A0430AD008E01062306232023C6
:100590000006031DAB00040A0739103E8400AD0BB2
:1005A000C52A4030AD0020230D302E198E000623C1
:1005B000AD0BD72AAE1CF62A971700308022900682
:1005C0000130802291060230802292060330802280
:1005D000930604308022940605308022950606306A
:1005E000802296060730802297060A10AB08031D6A
:1005F000FD22AC08031DFD22922A90019101920177
:100600009301940195019601970108000E08800658
:10061000000E0F39A7208C0000080F39103EA720CC
:100620008C078C090C0D8C0D0E088C070C0D8C0D95
:100630008C0E040A0739103E84000C088006003432
:10064000AE18392BFF306600861B242BF820861B42
:10065000242BF420980108308D000310980D861F7C
:100660001814F4208D0B2D2BF42018088E00AC07E5
:100670000800FF306600861B3B2BFE20861B3B2BB1
:10068000FC20980108308D000310980D861F181467
:10069000FC208D0B442BFC2018088E00AC070800B2
:1006A000AE18722B9900FF3086007F30660008304C
:1006B0008D009A018613F2200310990D031C8617F2
:1006C00003188613031C9A0AF6208D0B5C2B1A184C
:1006D00086131A1C8617F4208617F220FF30660056
:1006E0003C30992A990017309922FF3086007F30DC
:1006F000660008308D009A018613FA200310990DC8
:10070000031C861703188613031C9A0AFE20000098
:1007100000008D0B7E2B0000000000001A188613CD
:100720001A1C8617FA2000008617FF306600003476
:1007300000000000000000000000000000000000B9
:1007400000000000000000000000000000000000A9
:100750000000000000000000000000000000000099
:10076000003136233631000072256C256133650077
:1007700000000000000062390000000000000000DE
:100780000014002F00390033002F00260034000031
:100790000000533769347A25722C612E6400000002
:1007A0000000000000000000000000000000000049
:1007B0000000000000000000000000000000000039
:1007C0000000000000000000000000000000000029
:1007D0000000000000000000000000000000000019
:1007E0000000000000000000000000000000000009
:1007F00000000000000000000000000000000000F9
:084000007F007F007F007F00BC
:02400E00F13F80
:10420000FF00FF00FF00FF00FF00FF00FF00FF00B6
:10421000FF00FF00FF00FF00FF00FF00FF00FF00A6
:10422000FF00FF00FF00FF00FF00FF00FF00FF0096
:10423000FF00FF00FF00FF00FF00FF00FF00FF0086
:10424000FF00FF00FF00FF00FF00FF00FF00FF0076
:10425000FF00FF00FF00FF00FF00FF00FF00FF0066
:10426000FF00FF00FF00FF00FF00FF00FF00FF0056
:10427000FF00FF00FF00FF00FF00FF00FF00FF0046
:00000001FF
