:020000040000FA
:1000000001282F2165000E30A000203000308A1416
:100010003429903001210A0808390121F0308A057D
:100020001B308400840A1D218000841E12280830A1
:10003000AF002F08353E2C201D0603192228AF0BD8
:10004000192809282F08073C031C2A281D08A00886
:10005000031D01212F082D3E820026343E283F2813
:1000600041283F288E28AF28D128D32870347234F5
:100070007434763478347A347C347E34F8289901B8
:10008000F428A520F0200330A60010308400A0033F
:100090001D21A200AA1DF4282A1A99171D21A500C6
:1000A000A30049302A06031DA6102208D5202508E2
:1000B000D5201D21093A031DA6102A08D5201D218F
:1000C000923A031DA6102A08D5201D211F3A031DB0
:1000D000A6102A08D5201D21933A031DA6102A0830
:1000E000D5201530A0001D21D520A00B7328A2011A
:1000F0000430A0001D21A3002208D5202208D5200D
:100100002308A2000006031DA601840A8411A00B87
:100110007A281D21A6180D30A20009281730840066
:10012000F020403098002208D520980B9328261CF8
:10013000A520503025060319A520103084000008A2
:100140000121840AA00B9F280928900191019201A6
:1001500093019401950196019701B0010800BB201D
:10016000991CB4288030F828990A8A140030300687
:100170000319CD28C928103084000230B2000008CD
:10018000B006840AB20BBF2800303006031999016B
:100190000800D830FC20103034293830FC202830BA
:1001A00034290030F8280130F828AA008006000E13
:1001B0000F394021A40000080F3910384021A4074E
:1001C000A4092408A4070318A40A2A08A4072408D9
:1001D000A4070318A40A840A8411240E80060800C8
:1001E0000A148A140A1508001D21A00BF4280928F6
:1001F0000121A00BF8280928A00301297730031B4F
:10020000E730AA00AA09323030217F306600AB0106
:1002100086130830A8002F212A08AB068613AA1BD4
:100220008617AA0DA80B0B292F218613AB1F861743
:100230002F21FF3066004F303029861B1D292A30C0
:1002400030210930A8000310861F0314AA0D2F21A6
:10025000A80B2329AA0C283030212A0808001B30BB
:10026000A900A90B31290034AD00A003A01B092867
:100270002D08003A031900002C20AD0A0121352970
:0C02800089008316081483120808080087
:04028C000034003406
:100400003F34FA3411342534053400340134B03427
:100410000234003400344D34593402348034813491
:100420004834413443344B345434563420345234F9
:1004300055344C34453453345634493444344534BB
:100440004F344334523459345034543420343134DA
:1004500054344834493453342034433448344134D8
:100460004E344E3445344C342034493453342034E3
:1004700042344C344F3443344B34453444342034C8
:100480005534503444344134543449344E34473470
:1004900020344B344534593450344C344534413491
:1004A000533445342034573441344934543420349F
:02400E000100AF
:1042000048009B004D00A600F900D900DF006E00B9
:10421000AC008400FA008B002E00B6007600190076
:10422000C100B000A300BB000C00FD0070007200D4
:10423000CA005500EF00A0007F00BF005900AD008C
:104240003F00FA0011002500050000000100B00049
:104250000200000000004D005900000000000000B6
:10426000000000000000000000000000000000004E
:10427000000000000000000000000000000000003E
:00000001FF
