:020000040000FA
:10000000A82004308E0065000F30A0008C010C0881
:10001000B6207A208C0AA00B072890307A200A0894
:1000200008397A20F0308A051B308400840A962033
:100030008000841E16280530AF002F08303E302087
:100040001D0603192628AF0B1D280D282F08073C75
:10005000031C2E281D08A008031D7A202F08363EF9
:100060008200743478347A347C34763426344528EB
:100070004D285E2870283C2804308E00A003A01B69
:100080000D2896202A1F0A143C28A003A01B0D2827
:100090009620B0002A1F0A144528DB3030060319C9
:1000A0005228552810308C00572818308C000C0826
:1000B000B6207A208C0AA00B57280D288E0B6128B9
:1000C0006328D830662801308E00803078202830B0
:1000D0008C000C08B6207A208C0AA00B69280D2809
:1000E000A003A01B0D2800307A202A1F0A147028B4
:1000F000A0037A28AA00AA093230A9207F3066001E
:10010000AB0186130830A800A8202A08AB06861386
:10011000AA1B8617AA0DA80B8428A8208613AB1F3C
:100120008617A820FF3066004F30A928861B962826
:100130002A30A9200930A8000310861B0314AA0D39
:10014000A820A80B9C28AA0C2830A9202A0908005E
:100150001B30A900A90BAA280034AD00A003A01BE6
:100160000D282D083020AD0A7A20AE28890083168C
:080170000814831208080800BE
:04017800003400341B
:02400E000100AF
:104200003F00FA0011002500050000000100B00089
:1042100002003B0036004D00590002008000810082
:104220008E001700CE007B005A00D5002D009B00A9
:1042300080000B0077005000DA0085009800DF0056
:10424000FF00FF00FF00FF00FF00FF00FF00FF0076
:104250004800410043004B0054005600200052002B
:1042600055004C00450053005600490044004500ED
:104270004F0043005200590050005400200031000C
:00000001FF
