:020000040000FA
:1000000001282E2165000E30A000203000308A1417
:100010003329903000210A0808390021F0308A0580
:100020001B308400840A1C218000841E12280830A2
:10003000AF002F08353E2C201D0603192228AF0BD8
:10004000192809282F08073C031C2A281D08A00886
:10005000031D00212F082D3E820026343E283F2814
:1000600041283F288E28AF28D028D22870347234F7
:100070007434763478347A347C347E34F7289901B9
:10008000F328A520EF200330A60010308400A00341
:100090001C21A200AA1DF3282A1A99171C21A500C9
:1000A000A30049302A06031DA6102208D4202508E3
:1000B000D4201C21093A031DA6102A08D4201C2193
:1000C000923A031DA6102A08D4201C211F3A031DB2
:1000D000A6102A08D4201C21933A031DA6102A0832
:1000E000D4201530A0001C21D420A00B7328A2011D
:1000F0000430A0001C21A3002208D4202208D42010
:100100002308A2000006031DA601840A8411A00B87
:100110007A281C21A6180D30A20009281730840067
:10012000EF20403098002208D420980B9328261CFA
:10013000A520503025060319A520103084000008A2
:100140000021840AA00B9F280928900191019201A7
:1001500093019401950196019701B0010800BB201D
:10016000991CB4288030F728990A8A140030300688
:100170000319CC28C828103084000230B2000008CF
:10018000B006840AB20BBF28B00603199901080013
:10019000D830FB20103033293830FB202830332969
:1001A0000030F7280130F728AA008006000E0F392A
:1001B0003F21A40000080F3910383F21A407A409EB
:1001C0002408A4070318A40A2A08A4072408A407DB
:1001D0000318A40A840A8411240E800608000A1455
:1001E0008A140A1508001C21A00BF32809280021F5
:1001F000A00BF7280928A00300297730031BE7305C
:10020000AA00AA0932302F217F306600AB01861385
:100210000830A8002E212A08AB068613AA1B8617D1
:10022000AA0DA80B0A292E218613AB1F86172E2193
:10023000FF3066004F302F29861B1C292A302F21C2
:100240000930A8000310861F0314AA0D2E21A80B45
:100250002229AA0C28302F212A0808001B30A900C7
:10026000A90B30290034AD00A003A01B09282D08DC
:10027000003A031900002C20AD0A0021342989001E
:0A0280008316081483120808080012
:04028A000034003408
:100400003F34FA3411342534053400340134B03427
:100410000234003400344D34593402348034813491
:100420004834413443344B345434563420345234F9
:1004300055344C34453453345634493444344534BB
:100440004F344334523459345034543420343134DA
:1004500054344834493453342034433448344134D8
:100460004E344E3445344C342034493453342034E3
:1004700042344C344F3443344B34453444342034C8
:100480005534503444344134543449344E34473470
:1004900020344B344534593450344C344534413491
:1004A000533445342034573441344934543420349F
:02400E000100AF
:1042000048009B004D00A600F900D900DF006E00B9
:10421000AC008400FA008B002E00B6007600190076
:10422000C100B000A300BB000C00FD0070007200D4
:10423000CA005500EF00A0007F00BF005900AD008C
:104240003F00FA0011002500050000000100B00049
:104250000200000000004D005900000000000000B6
:10426000000000000000000000000000000000004E
:10427000000000000000000000000000000000003E
:00000001FF
