:100000000CC0189518951895189518951895189569
:10001000189518951895189518958FE58DBFC8E314
:10002000E0E24E2E82E08EBFD2E0F2E05F2EEEEFF5
:10003000F1E0A0E6B0E088278D933197E9F76624D8
:1000400080E895E2A6E6B0E08D939C9381E08093F2
:100050006C0080E080936500009165000F3010F027
:1000600009F01AC0ACE6B0E0EC91FF27A5E6B0E0DD
:10007000AD90BB24AFE6B0E0AA0DBB1D91E0A2D7C6
:10008000ACE6B0E08C918F5F8C93A5E6B0E08C91EC
:100090008F5F8C9308F4E0CF80E08093650000913F
:1000A00065000F3110F009F01AC0ACE6B0E0EC9139
:1000B000FF27A5E6B0E0AD90BB24ABEAB0E0AA0D07
:1000C000BB1D91E07FD7ACE6B0E08C918F5F8C9345
:1000D000A5E6B0E08C918F5F8C9308F4E0CFA4D1BB
:1000E00080E080936C0080E080936E00EAE7FDE0A2
:1000F00086D68FE0A42DB52D8C9381E00AD7C8D584
:10010000229681E002D781E080936E0080E08093A8
:100110006A00A6E6B0E08D919C91ABEDB0E08D93C6
:100120009C93DDD607D881E08A9382E08A9388E0A9
:100130008A93A0E6B0E085E08A93E7E386E0E8945E
:100140009ED700916100013D09F07BC081ED809355
:100150006800A6E6B0E08D919C91ABEDB0E08D9388
:100160009C93BDD6E7D781E08A9382E08A9388E0AA
:100170008A9381E08A93A8E6B0E0E7E386E0E8941A
:1001800028D780E080936500009165000F3110F062
:1001900009F031C0A6E6B0E08D919C91ABEDB0E0E6
:1001A0008D939C939CD6C6D781E08A9382E08A93F4
:1001B00088E08A93A5E6B0E0AD90BB24A3E8B0E068
:1001C000AA0DBB1D81E08A93E7E386E0E89457D748
:1001D000A5E6B0E0AD90BB24A3E8B0E0AA0DBB1D3E
:1001E000BA93AA938FD02296A5E6B0E08C918F5F48
:1001F0008C9308F4C9CF00918300083F09F004C034
:1002000082E080936D000FC000918900003209F0F8
:1002100004C080E080936D0006C0033609F003C07F
:1002200081E080936D0000916D00003009F001C005
:1002300006D300916D00013009F001C03ED166D5B2
:100240005EC0013E09F021C000916D00023008F04F
:1002500002C096D419C000918800053809F004C086
:10026000ECE9FDE0CCD506C0013D09F003C0E6EAAB
:10027000FDE0C5D588E0A42DB52D8C9381E049D64D
:1002800007D5229681E041D63AC0013C09F00EC064
:10029000EAE8FDE0B4D580E1A42DB52D8C9381E092
:1002A00038D6F6D4229681E030D629C0013A09F03A
:1002B00025C000916C00053008F009C0E0EBFDE0BE
:1002C0009ED5ACE6B0E08C918F5F8C930CC0009112
:1002D0006B00003009F404C0E4EEFDE090D503C0EB
:1002E000EAECFDE08CD589E1A42DB52D8C9381E05D
:1002F00010D6CED4229681E008D601C007D509CF0A
:10030000F894FFCFA881B9810C914AEA0423AAE6A8
:10031000B0E00C9391E0AAE6B0E014D6A881B981D0
:100320008C9185758C9391E0A881B981F8D5009165
:100330006A00A881B9814C91042BA881B9810C93E2
:10034000A881B9810C914CEC0423AAE6B0E00C938F
:1003500092E0AAE6B0E0F6D5A881B9818C918373CA
:100360008C9392E0A881B981DAD500916A00A881C6
:10037000B9814C91042BA881B9810C93A881B981D2
:100380008C9182958C93A881B9818C918C939FEFED
:1003900089278C93089500918E008091910080931D
:1003A0008E00A1E9B0E00C9300918F008091900045
:1003B00080938F00A0E9B0E00C93009192008091AF
:1003C000950080939200A5E9B0E00C930091930012
:1003D0008091940080939300A4E9B0E00C93009185
:1003E00096008091990080939600A9E9B0E00C9363
:1003F000009197008091980080939700A8E9B0E061
:100400000C9300919A0080919D0080939A00ADE931
:10041000B0E00C9300919B0080919C0080939B0026
:10042000ACE9B0E00C93089500916F0080917200E8
:1004300080936F00A2E7B0E00C9300917000809170
:10044000710080937000A1E7B0E00C9300917300FD
:100450008091760080937300A6E7B0E00C93009142
:1004600074008091750080937400A5E7B0E00C9350
:100470000091770080917A0080937700AAE7B0E03E
:100480000C93009178008091790080937800A9E71F
:10049000B0E00C9300917B0080917E0080937B0004
:1004A000AEE7B0E00C9300917C0080917D008093DA
:1004B0007C00ADE7B0E00C93089580E080936B0082
:1004C0006ADF00E010E020E030E0ABECB0E00D933C
:1004D0001D932D933C9309EB19E727E33EE9AFEC1D
:1004E000B0E00D931D932D933C9380E080936500C5
:1004F000009165000F3110F009F07DC1A2E9B0E074
:100500000D911D912D913C91A3EDB0E00D931D93A4
:100510002D933C9394E0A3EDB0E009D5A2E9B0E0BF
:100520000D911D912D913C91A7EDB0E00D931D9380
:100530002D933C9395E0A7EDB0E00CD5A3EDB0E092
:100540000D911D912D913C91A7EDB0E04D915D91E4
:100550006D917C91B1D4A3EDB0E00D931D932D93DB
:100560003D93A3EDB0E00D911D912D913C91A2E939
:10057000B0E04D915D916D917C9111D5A3EDB0E00E
:100580000D931D932D933D93ABECB0E00D911D9118
:100590002D913C9143E050E060E070E092D4A7EDF3
:1005A000B0E00D931D932D933D93ABECB0E00D9116
:1005B0001D912D913C91A7EDB0E0AD90BD90AFE6BF
:1005C000B0E0AA0CBB1CAA0CBB1CAA0DBB1D4D9114
:1005D0005D916D917C91E3D4A7EDB0E00D931D93F7
:1005E0002D933D93A3EDB0E00D911D912D913C9184
:1005F000A7EDB0E04D915D916D917C915DD4A3ED3F
:10060000B0E00D931D932D933D93AEE8B0E00D91B6
:100610001D912D913C91A3EDB0E04D915D916D91B7
:100620007C91BDD4AEE8B0E00D931D932D933D9326
:10063000ABECB0E00D911D912D913C91AFECB0E091
:100640004D915D916D917C91AAD4ABECB0E00D938E
:100650001D932D933D93AEE8B0E00D911D912D912A
:100660003C91A3EDB0E00D931D932D933C9394E04A
:10067000A3EDB0E05CD4AEE8B0E00D911D912D91FA
:100680003C91A7EDB0E00D931D932D933C9395E025
:10069000A7EDB0E05FD4A3EDB0E00D911D912D91D9
:1006A0003C91A7EDB0E04D915D916D917C9104D4AA
:1006B000A3EDB0E00D931D932D933D93AEE8B0E014
:1006C0000D911D912D913C91A3EDB0E04D915D9167
:1006D0006D917C9164D4A3EDB0E00D931D932D93A7
:1006E0003D93ABECB0E00D911D912D913C91A7EDA8
:1006F000B0E00D931D932D933C939BE0A7EDB0E0EC
:1007000029D4A7EDB0E00D911D912D913C9143E0CE
:1007100050E060E070E0D5D3A7EDB0E00D931D93FD
:100720002D933D93ABECB0E00D911D912D913C913B
:10073000A7EDB0E0AD90BD90AFE6B0E0AA0CBB1C59
:10074000AA0CBB1CAA0DBB1D4D915D916D917C91B6
:1007500026D4A7EDB0E00D931D932D933D93A3ED0B
:10076000B0E00D911D912D913C91A7EDB0E04D9120
:100770005D916D917C91A0D3A3EDB0E00D931D939D
:100780002D933D93A3EDB0E00D911D912D913C91E2
:10079000A2E9B0E04D915D916D917C9100D4A2E908
:1007A000B0E00D931D932D933D93009165000730AC
:1007B00009F01AC0AEE8B0E04D915D916D917C9169
:1007C000A6E9B0E00D911D912D913C9104171507FC
:1007D0002607370709F408C0ABE6B0E08C918160CA
:1007E0008C938FEF80936C00A5E6B0E08C918F5FC7
:1007F0008C9308F47DCECFDD80E08093650000917E
:100800006500073010F009F019C0A5E6B0E0AD9022
:10081000BB24AEE8B0E0AA0DBB1D8C91A5E6B0E00C
:10082000AD90BB24A3EAB0E0AA0DBB1D8C93A5E656
:10083000B0E08C918F5F8C9308F4E1CF089580E055
:1008400080936B0080E080937F0080E08093800045
:1008500080E08093650000916500073010F009F09A
:1008600011C080E0A5E6B0E0AD90BB24A3EAB0E003
:10087000AA0DBB1D8C93A5E6B0E08C918F5F8C9385
:1008800008F4E9CF80E080936500009165000A31AB
:1008900010F009F019C0A5E6B0E0AD90BB24A3E8C4
:1008A000B0E0AA0DBB1D8C91A42DB52D8C9381E0D9
:1008B00030D37AD0229681E028D3A5E6B0E08C919F
:1008C0008F5F8C9308F4E1CF8BE1809365000091FA
:1008D00065000E3110F009F04CC080918000A42D0D
:1008E000B52D8C9381E015D35FD0229681E00DD396
:1008F00080918000A42DB52D8C9381E00AD354D033
:10090000229681E002D3A5E6B0E0AD90BB24A3E837
:10091000B0E0AA0DBB1D8C9180938000A5E6B0E0ED
:10092000AD90BB24A3E8B0E0AA0DBB1D4C91AFE78E
:10093000B0E0AD90BB24A3EAB0E0AA0DBB1D0C91C2
:10094000041709F405C0ABE6B0E08C9181608C938C
:10095000AFE7B0E08C918F5F8C93AFE7B0E08C9104
:1009600087708C93A5E6B0E08C918F5F8C9308F430
:10097000AECF80E080936500009165000F3310F0EA
:1009800009F011C08DE0A42DB52D8C9381E0C1D26A
:100990000BD0229681E0B9D2A5E6B0E08C918F5FB2
:1009A0008C9308F4E9CF0895AFE7B0E0AD90BB2495
:1009B000A3EAB0E0AA0DBB1D0C91A881B9814C91AE
:1009C0000427AFE7B0E0AD90BB24A3EAB0E0AA0DE6
:1009D000BB1D0C93AFE7B0E0AD90BB24A3EAB0E041
:1009E000AA0DBB1D8C91A3EDB0E08D9388278D934C
:1009F0008D938C9394E0A3EDB0E0ACD2A3EDB0E086
:100A0000AD90BD90ABEAB0E0AA0DBB1D8C91809378
:100A10008100AFE7B0E0AD90BB24A3EAB0E0AA0D3F
:100A2000BB1D0C911127222733274FE050E060E0D7
:100A300070E047D2A3EDB0E00D931D932D933D934D
:100A4000A3EDB0E00D911D912D913C9140E150E05E
:100A500060E070E0A4D2A3EDB0E00D931D932D9360
:100A60003D93A3EDB0E0AD90BD90ABEAB0E0AA0D30
:100A7000BB1D8C9180938200009182004091810087
:100A8000040FA2E8B0E00C93A2E8B0E08C9180954E
:100A90008C93A2E8B0E08C91A3EDB0E08D93882711
:100AA0008D938D938C9391E0A2E8B0E038D297E0DB
:100AB000A3EDB0E04FD2009182004091D300042B0F
:100AC000A2E8B0E00C9300918200A881B9814C911A
:100AD000040FA2E8B0E00C93A2E8B0E08C91A3ED83
:100AE000B0E08D9388278D938D938C9391E0A2E84D
:100AF000B0E015D297E0A3EDB0E02CD200918200D7
:100B00004091D300042BA2E8B0E00C93A2E8B0E03F
:100B10008C91A3EDB0E08D9388278D938D938C936A
:100B200094E0A2E8B0E00ED294E0A3EDB0E0FFD1F3
:100B3000009182004091D300042BA2E8B0E00C9316
:100B4000AFE7B0E08C918F5F8C93AFE7B0E08C9112
:100B500087708C93AFE7B0E0AD90BB24A3EAB0E020
:100B6000AA0DBB1D0C91409182000427AFE7B0E0B5
:100B7000AD90BB24A3EAB0E0AA0DBB1D0C93089571
:100B800081EE80936800A6E6B0E08D919C91ABED7C
:100B9000B0E08D939C93A3D1CDD281E08A9382E083
:100BA0008A9388E08A9381E08A93A8E6B0E0E7E33D
:100BB00086E0E8940ED200916B00003009F03BC053
:100BC00080E08093650000916500073010F009F027
:100BD00031C0A5E6B0E0AD90BB24A3EAB0E0AA0D19
:100BE000BB1DBA93AA938EDB2296A6E6B0E08D9148
:100BF0009C91ABEDB0E08D939C9371D19BD281E041
:100C00008A9382E08A9388E08A9381E08A93A5E6BA
:100C1000B0E0AD90BB24A3EAB0E0AA0DBB1DE7E3B2
:100C200086E0E894D6D1A5E6B0E08C918F5F8C93F6
:100C300008F4C9CF2BC080E0809365000091650067
:100C4000073010F009F022C08FEF80936800A6E60D
:100C5000B0E08D919C91ABEDB0E08D939C933FD132
:100C600069D281E08A9382E08A9388E08A9381E066
:100C70008A93A8E6B0E0E7E386E0E894AAD1A5E687
:100C8000B0E08C918F5F8C9308F4D8CF3FD008955B
:100C900080E080936500A881B9814C910091650046
:100CA000041710F009F02BC0ADD0A8E6B0E05DD17C
:100CB0000C92A5D0A8E6B0E0BA93AA9323DB2296C3
:100CC000A6E6B0E08D919C91ABEDB0E08D939C9346
:100CD00006D130D281E08A9382E08A9388E08A93B9
:100CE00081E08A93A8E6B0E0E7E386E0E89471D17A
:100CF000A5E6B0E08C918F5F8C9308F4CCCF009187
:100D00006E00013009F001C001D0089586EF809394
:100D10006800A6E6B0E08D919C91ABEDB0E08D93BC
:100D20009C93DDD007D281E08A9382E08A9388E0A9
:100D30008A9381E08A93A8E6B0E0E7E386E0E8944E
:100D400048D18FEF80936800A6E6B0E08D919C912A
:100D5000ABEDB0E08D939C93C2D0ECD181E08A934F
:100D600082E08A9388E08A9381E08A93A8E6B0E0E3
:100D7000E7E386E0E8942DD108953FFA11250500B8
:100D800001B0023B364D590280817C00000000001A
:100D9000000000000000000000000000788E17CE68
:100DA0007B5AD52D9B0078800B7750DA8598DF0031
:100DB0007AD8283A4E454F373533303A292020210A
:100DC000484156452046554E21207A80202020203B
:100DD0002020202020202020202020202020202013
:100DE000202020207AD854484953204348414E4E71
:100DF000454C20495320424C4F434B4544208E2EB6
:100E00009F2E0895E82DF92D089500FC05D0089532
:100E100030D005D001F8F9CF37D03FD00895842FD6
:100E2000952FA62FB72FE894452B462B472B11F46F
:100E300068940895402F512F622F732F0027112798
:100E400022273327F0E2440F551F661F771F001F2C
:100E5000111F221F331F081B190B2A0B3B0B41606C
:100E600028F4080F191F2A1F3B1F4E7FFA9559F7C8
:100E700008950024E89477FF02C006D0689400F833
:100E800009D010F80124089512D04F5F5F4F6F4FC3
:100E90007F4F0895E89437FF0895009510952095A9
:100EA00030950F5F1F4F2F4F3F4F68940895409527
:100EB00050956095709508950427152726273727A4
:100EC0000895042315232623372308953197F1F736
:100ED0000895689462F80895E89462F808958D91F1
:100EE00087FB16F48FEF01C088278D938C930895AC
:100EF0000D911D912D913C9108953C932E931E933D
:100F00000E930895481A590A0895481A8827580ACE
:100F1000089599275A924A92480E591E0895903082
:100F200029F08C91880F9A95E9F78C930895903069
:100F300041F0DEDF000F111F221F331F9A95D1F7FA
:100F4000DCCF0895903029F08C9186959A95E9F739
:100F50008C930895903041F0CBDF36952795179507
:100F600007959A95D1F7C9CF0895C8953196002075
:100F7000089591E0882321F08894991F8A95E9F7D4
:100F8000892F909508950F938F9308E09927881FD4
:100F900008F493950A95D9F78F910F910895040F4E
:100FA000151F261F371F0895041B150B260B370B23
:100FB0000895E199FECFEEBBFFBB3196089591E015
:100FC00001C092E0F6DFE09A8DB38D939A95D1F748
:100FD0000895CFDFFF27008009220082E39500807B
:100FE00009220082082F692FEA9549918D91188175
:100FF0001730B9F41981103031F4806880952A8156
:10100000285F992724C0113041F4BDDF90FD80682E
:1010100080952A81275F99271AC0B5DF90FF8068E5
:10102000F7CF1981103029F480952A81275F9927FD
:101030000EC0113039F4A7DF80952A81265F909584
:10104000917005C0A0DF80952A81265F9170089479
:1010500016F028F401C018F00080002A03C00080B8
:101060000622000000825BD05AD0969587952A957B
:1010700079F74A9509F0BACF239651D0089579DFD0
:10108000FF27008009220082E39500800922008268
:101090003297082F692F4991342F1881173049F45E
:1010A0001981103019F42A81295F0BC02A81285F29
:1010B00008C01981103019F42A81285F02C02A81E2
:1010C000275F522F0080002216F019F0FBCF09F4A1
:1010D000F9CF25D024D023D088940080002209F0B5
:1010E00008942A9519F087959795F4CF5A3028F0EF
:1010F0005950991F881F5A95E1F70EF48095188171
:10110000173009F48F778D93303031F48D3029F614
:1011100088278C93239608954A95E1F3BECF8F9349
:101120009F938091DB009091DC000197F1F79F91F4
:101130008F91089500E519E726E330E0ABEDB0E0CC
:101140004D915D916D917C9163DEABEDB0E04D937F
:101150005D936D937D93ABEDB0E00D911D912D915D
:101160003C914AE250E060E070E01EDFABEDB0E0A1
:101170000D931D932D933D93ABEDB0E00D911D911B
:101180002D913C9148E050E060E070E041DEABED35
:0C119000B0E04D935D936D937D93089546
:00000001FF
